:020000040800F2
:10000000E8460020AD02000819090008790600083A
:1000100017090008CD040008650A00080000000068
:10002000000000000000000000000000ED010008DA
:10003000CF04000800000000490200081B09000866
:10004000C7020008C7020008C7020008C70200086C
:10005000C7020008C7020008C7020008C70200085C
:10006000C7020008C7020008C7020008C70200084C
:10007000C7020008C7020008C7020008C70200083C
:10008000C702000800000000C7020008C7020008FD
:10009000C7020008C7020008C7020008C70200081C
:1000A000C7020008C7020008C7020008C70200080C
:1000B000C7020008C7020008C7020008C7020008FC
:1000C000C7020008C7020008C7020008C7020008EC
:1000D000C7020008C7020008610A0008C70200083A
:1000E000C7020008C7020008C7020008C7020008CC
:1000F000C7020008C7020008C7020008000000008D
:1001000000000000C702000800000000C70200084D
:10011000C702000800000000C7020008C70200086C
:10012000C7020008C7020008C7020008C70200088B
:10013000C70200080000000000000000C70200081D
:10014000C7020008C702000800000000000000000D
:10015000000000000000000000000000000000009F
:10016000000000000000000000000000C7020008BE
:10017000C7020008000000000000000000000000AE
:1001800000000000C702000800000000000000009E
:10019000000000000000000000000000000000005F
:1001A0000000000000000000C7020008C7020008AD
:1001B000C7020008C7020008C702000800000000CC
:1001C00000000000C702000800000000000000005E
:1001D000C7020008C7020008DFF80CD000F09CF846
:1001E00000480047090B0008E84600202C4B19681E
:1001F0000868B0E8F04F80F30988BFF36F8F4FF0C5
:10020000000080F311887047000000000848006873
:10021000006880F308884FF0000080F3148862B60D
:1002200061B6BFF34F8FBFF36F8F00DF00BF00BF1A
:1002300008ED00E0DFF80C00016841F47001016096
:10024000704700BF88ED00E0EFF30980BFF36F8FC8
:10025000134B1A681EF0100F08BF20ED108A20E91A
:10026000F04F106009B44FF0500080F31188BFF3D5
:100270004F8FBFF36F8F01F0DFFA4FF0000080F374
:10028000118809BC19680868B0E8F04F1EF0100F1B
:1002900008BFB0EC108A80F30988BFF36F8F7047F6
:1002A00034000020EFF305807047000006488047C7
:1002B00006480047FEE7FEE7FEE7FEE7FEE7FEE74B
:1002C000FEE7FEE7FEE7FEE7090A0008D90100089D
:1002D00040EA01039B0703D009E008C9121F08C0C8
:1002E000042AFAD203E011F8013B00F8013B521E48
:1002F000F9D27047D2B201E000F8012B491EFBD2BF
:1003000070470022F6E710B513460A460446194620
:10031000FFF7F0FF204610BD064C074D06E0E068F1
:1003200040F0010394E8070098471034AC42F6D33C
:10033000FFF756FF5C2200087C220008624BDA1CA3
:10034000997871B3012933D0022937D003293BD0E2
:1003500004293FD0052943D0062947D007294BD08F
:1003600008294FD0092953D00A2956D00B295AD031
:100370000C295ED00D2962D00E2966D00F296AD0D3
:10038000102976D011297CD012296CD013296BD07A
:1003900014296AD0152969D0162968D0172967D081
:1003A00084E0FFE7412872D10121997010707047F5
:1003B00054287BD102219970507070472B2875D139
:1003C000032199709070704743286FD10421997070
:1003D000D0707047532869D105219970107170470A
:1003E000512863D106219970507170470D285DD155
:1003F00007219970907170470A2857D10821997088
:10040000D07170470D2851D1092199701072704731
:100410000A284BD19870507270472B2846D10B2177
:10042000997090727047432840D10C219970D07216
:10043000704753283AD10D21997010737047512895
:1004400034D10E219970507370473A282ED10F2164
:10045000997090737047202828D110219970D0731B
:10046000704706E00DE013E016E019E01CE023E021
:1004700026E01074302802D014209870F0E7112084
:10048000FBE72C2812D1122199705074E8E70DE097
:10049000132199709074E3E71E219970D074DFE7FF
:1004A000152199701075DBE72C2801D00020E4E7B6
:1004B000162199705075D3E7172199709075CFE781
:1004C00018219970D075CBE70C000020FEE770472B
:1004D00070B594B0012000F039F94FF4005000F0ED
:1004E00035F90120069003200025079006A90A95FA
:1004F0004FF0904000F036F94FF44030CDE90C0554
:100500000CA939480F9500F0B9F84FF0A0441095A8
:10051000119510A92046129500F0D8F800954FF4D7
:1005200080500590019502950495694603952046F3
:1005300000F0E2F8D4F8C0006FF30D00C4F8C0007A
:10054000206920F480302061206940F20341884313
:100550002061A068254E3040A060A068244D28404E
:1005600040F08050A060642000F0C6F92148016886
:1005700021F4F86141F0400101601E481C38016817
:1005800021F0380141F030010160D4F8B00020F0D2
:100590000200C4F8B000606840F010006060A0681D
:1005A00010F0010F1ED1A0683040A060A068284064
:1005B00040F08050A060642000F09EF9A0680E49D1
:1005C000084040F00040A060A068C00FFCD164204B
:1005D00000F092F9A0682840401CA060206810F04C
:1005E000010FFBD014B070BD00030050C0FFFF5FCF
:1005F000C0FFFF7F30000050C0FFFF3F00B587B055
:10060000684600F04AF90C48C16C41F00101C16430
:10061000C06C694600F00100069020200090012087
:100620000190022002900020039004904FF090402F
:1006300000F098F807B000BD001002404FF0A04055
:10064000816811F0010F0CD08168C1F3400141B9FC
:100650008168C1F3800121B98168064A1140091DF2
:1006600081600168C1F380010029FAD0006C80B27A
:1006700070470000C0FFFF7FFEE7000030B54FF07D
:10068000A0444B68A46800220E4D04F00104AD683C
:1006900005F001052C4302D00122104630BD0A4D61
:1006A00053B10C681C43D1E902310B4381681C43F0
:1006B00029400C438460F0E7836809682B400B43B2
:1006C0008360EAE700010050E030C0FF30B5836886
:1006D000002213F0010F02D00122104630BDD1E9F3
:1006E000003423438968C4684CF21805AC432143A5
:1006F0000B43C360F1E7000070B54C6883680022CB
:1007000013F0010F02D00122104670BD002C0E4BD9
:100710000C6807D08D682C43D1E9035635432C4330
:100720004D6904E0CD682C43D1E9045635432C4390
:10073000C5681D402C43C4604968036B23F00F0358
:100740000B430363E0E700001CC0F0FF044908B559
:10075000CA6C0243CA64C96C0140009108BD000024
:1007600000100240F0B50A680F2692FAA2F2B2FA1F
:1007700082F303248AE001259D402A407ED04D6803
:10078000012D01D0022D20D18D68876892FAA2FC3C
:10079000BCFA8CFC4FEA4C0E04FA0EFC27EA0C075C
:1007A00092FAA2FCBCFA8CFC4FEA4C0C05FA0CF550
:1007B0002F438760CF680D68D0F804C02CEA050C81
:1007C0007D434CEA050CC0F804C00F69D0F80CC09A
:1007D00092FAA2F5B5FA85F54FEA450E04FA0EF540
:1007E0002CEA050C92FAA2F5B5FA85F56D00AF403A
:1007F0004CEA070CC0F80CC04D68022D2FD1FF2A1F
:1008000015D8D1F814C0056A92FAA2F7B7FA87F79B
:10081000BF0006FA07F7BD4392FAA2F7B7FA87F7C7
:10082000BF000CFA07FC45EA0C05056217E0D1F899
:1008300014E0476A150A95FAA5FCBCFA8CFC4FEA4D
:100840008C0C06FA0CFC95FAA5F5B5FA85F5AD0009
:1008500027EA0C070EFA05FE47EA0E0747624D68C5
:10086000076892FAA2FCBCFA8CFC4FEA4C0C04FA22
:100870000CFE27EA0E0792FAA2F200E005E0B2FAB7
:1008800082F2520095402F4307605B1C0A6832FADF
:1008900003F57FF470AF0020F0BD4FF6FF710160EB
:1008A0000321416000218160C160016141617047A5
:1008B0004FF47A71B0FBF1F14FF0E020491E416135
:1008C000044AF02182F8141D002181610721016191
:1008D000704700000FE000E003498A6822F0F00250
:1008E00002438A607047000000100240014908601E
:1008F000704700003000002008B54FF0E0210A6981
:100900000092421C00D0401C0A69D20300D5401E50
:100910000028F9D108BDFEE7704710B501F0F2FAE2
:10092000012803D0BDE8104001F032B810BD00002E
:1009300038B52E4CA06D40F08050A065A06D00F041
:10094000805000902A4850F8801F21F48071016087
:10095000A06D20F08050A0652648016821F00F01AD
:1009600041F004010160E16845F23250224A114031
:100970000843E060206840F0807020602068C0F389
:1009800040600028FAD0E06840F08070E06080208D
:10099000FFF7A2FFA06840F00300A060A06800F08D
:1009A0000C000C28FAD11548016841F080710160F3
:1009B0001348016841F00101016000214160416874
:1009C0006429FCD30020FFF787FFA06820F4E060D3
:1009D000A060A06820F46050A0600A4C2046FFF799
:1009E00067FF2046BDE83840FFF780BF0010024097
:1009F00000700040002002400C80FFF9FCED00E098
:100A0000001000E080FE210A0548016841F47001F1
:100A1000016003494FF000608039086070470000B2
:100A200088ED00E04FF090444FF4FA7561692020A2
:100A3000884301F0200140EA0140A061284600F00F
:100A40000BFEF3E7044D054C2846FFF7F7FD208029
:100A5000022000F001FEF7E7020030042C00002025
:100A600000F002B8FEE7000010B5144CE069C0F3D6
:100A7000401038B12068C0F3401018B1606AC0B2AD
:100A8000FFF75CFCE069C0F3C010002815D02068B7
:100A9000C0F3C010002810D00A48094A074B01785B
:100AA0002833525C1A60491CC9B2017040788142F7
:100AB00003D1206820F08000206010BD0044004079
:100AC000B80000200C00002002E008C8121F08C176
:100AD000002AFAD170477047002001E001C1121FBF
:100AE000002AFBD170470000044805490068B0FBAC
:100AF000F1F104480170012141807047300000206D
:100B000040420F00B40000201CB5104908684FF6A1
:100B1000FF0210400E4A40F4806010430860FFF767
:100B200007FFFFF7E1FFFFF769FDFFF7D1FC094978
:100B30000120CDE900010023802207A1094801F02E
:100B4000B5F900F039FE00201CBD00000CED00E0FE
:100B50000000FA050000002073746172745F746114
:100B6000736B0000C11300082DE9F041134C0F46D0
:100B70000546E6682068001D00F050FC681C07D19F
:100B800037B12168BDE8F0410D48091D00F07FBC78
:100B900020683544B5424560216805D2E06BBDE868
:100BA000F041091D00F05BBCA06B091D00F057FC73
:100BB000A06A854200D2A562BDE8F0813400002021
:100BC000A80600202DE9F041054600F06DFC2D4CF3
:100BD000A068401CA06020682B4F10B1606930B342
:100BE0002BE02560A068012827D1002606EB8600AF
:100BF00007EB800000F025FC761C382EF6D3234846
:100C000000F01FFC2148143000F01BFC1F48283066
:100C100000F017FC1D483C3000F013FC1B4850301E
:100C200000F00FFC1948A0631430E06305E0206871
:100C3000E96AC06A884200D82560606A401C606228
:100C40006864E86A2169884200D9206100EB80006D
:100C500007EB8000291D00F01AFC00F045FC6069DC
:100C600000280CD02068E96AC06A884207D2084987
:100C70004FF080500860BFF34F8FBFF36F8FBDE818
:100C8000F081000034000020F80100205806002008
:100C900004ED00E010B500F007FC0E4C2068A0B990
:100CA0000D4800F0CEFB0C48143000F0CAFB0A4897
:100CB000E06014302061002210210A2000F07EFE46
:100CC000206010B105A100F091FCBDE8104000F0DB
:100CD0000BBC000074000020BC060020546D725153
:100CE0000000000030B4026C0B46002A0BD0C16833
:100CF0001144C1608468A14201D30168C16030BC65
:100D00001846FFF7E5BA30BC70472DE9F041856B16
:100D1000174604460026026C82B1C7B1E068FFF7AF
:100D2000D7FAE168206C091AE1602268914202D288
:100D3000A168081AE060022F16D017E02068A8B951
:100D4000A06801F057F906460020A0600EE0606838
:100D5000FFF7BEFA216C606808446060A1688842B1
:100D600004D32068606001E005B16D1E6D1CA563B1
:100D70003046BDE8F08110B50446006B00F0C8FBBA
:100D80002046BDE8104000F0C3BB000010484FF4FF
:100D90007051420706D0C01D0D4920F00700411ACE
:100DA000C1F570510B4A00230144C2E90003083920
:100DB000183A21F0070111604B600B600B1AC0E973
:100DC000001393604FF00040536050617047000083
:100DD000E4060020AC000020144E154CA6F29C47FF
:100DE0004FF08058DFF84C9012E000BF00F05CFB41
:100DF000F068C568281D00F011FBA068401EA060C7
:100E00006068401E606000F06FFB2846FFF7B3FF8C
:100E100060680028EAD138680128F9D9C9F800804B
:100E2000BFF34F8FBFF36F8FF2E7000094060020EF
:100E30003400002004ED00E02DE9F05F8846DDE994
:100E40000B941546834691009A460A9EA522206B74
:100E5000FFF750FA6FF00301206B01EB85010844A6
:100E600020F00707780707D0502080F31188BFF3E0
:100E70004F8FBFF36F8FFEE70025B8F1000F0FD043
:100E80005FF00000221818F8001082F8341018F8EB
:100E9000001011B1401C1028F4D384F8435001E035
:100EA00084F83450382E00D33726E662C4E913653F
:100EB000201D00F0D1FA04F1180000F0CDFA2461F1
:100EC000C6F138006462A061656584F858505246E6
:100ED0005946384600F05EFA2060B9F1000F01D0A3
:100EE000C9F80040BDE8F09F30B5114900E0114657
:100EF0000A688242FBD34B685C18844203D1406885
:100F000018444860084643681C18944209D1084CAC
:100F1000183C2468A24209D052681A4442600A6808
:100F200012680260814200D0086030BD0460F9E7B9
:100F3000AC00002070B5002441600B4D006191426F
:100F400006D8D11A8269914206D2011D286907E0AC
:100F50009A4203D2994201D3012403E0011DE868BB
:100F600000F07DFA204670BD7400002010B50446E4
:100F700000F09AFAA06B28B15FF0000400F0B4FA18
:100F8000204610BD0124F9E730B589B03C4D6EE034
:100F90000498002806DADDE90601059A90470498CE
:100FA000002864DB069C606910B1201D00F036FA51
:100FB00003A800F0D5F8024604980A2857D2DFE8C3
:100FC00000F00505052D334A05052D3394F828005A
:100FD00040F0010084F828000599A069059B0144B0
:100FE0002046FFF7A7FF68B3216A2046884794F898
:100FF000280040073BD5002000900598A1690023F8
:1010000042181946204601F0F5F8D8B9502080F36F
:101010001188BFF34F8FBFF36F8FFEE714F8280FCF
:1010200020F00100207022E094F8280040F0010038
:1010300084F828000598A06128B18118134620463D
:10104000FFF778FF13E0502080F31188BFF34F8F34
:10105000BFF36F8FFEE794F82800810703D4204682
:1010600000F056FA03E020F0010084F82800002286
:1010700004A9286800F040FE002889D109B030BDDD
:10108000740000202DE9FC410F46054600F0CCFB22
:1010900001A800F065F80446019818B101F022F8A3
:1010A000BDE8FC81254EAFB130690068D0B30027A0
:1010B000291B3A46306800F0ADFA01F013F8002819
:1010C000EED11F494FF080500860BFF34F8FBFF340
:1010D0006F8FE5E7A542EBD801F004F8F0682746EA
:1010E000C068C468201D00F099F994F828004107F1
:1010F00019D5A0692B4641193A462046FFF71AFF39
:10110000A8B100200346014600902A46204601F07F
:1011100071F860B9502080F31188BFF34F8FBFF38F
:101120006F8FFEE707E020F0010084F82800216AB5
:1011300020468847B4E70127BAE700007400002082
:1011400004ED00E00548816B096821B1816BC96835
:101150000968816270474FF0FF31FAE734000020E0
:1011600070B5054600F0DCFE064E0446B0688442C9
:1011700003D200F009F8012000E00020286020469A
:10118000B46070BD74000020F8B5194D20E0C0684F
:10119000C4680668201D00F041F9216A204688478E
:1011A00094F82800400713D5A0693044B04206D90E
:1011B00024616060211DE86800F051F908E000201A
:1011C0000346014600903246204601F013F838B13C
:1011D000E86801680029DAD12969C5E90310F8BD7A
:1011E000502080F31188BFF34F8FBFF36F8FFEE75E
:1011F0007400002008484068401C4FF0500080F305
:10120000118804D0BFF34F8FBFF36F8FFEE7BFF39A
:101210004F8FBFF36F8FFEE788000020074CE06818
:10122000016841B1C0680021D0F80000FFF72AFF33
:10123000FFF7AAFEF3E701210020F7E77400002082
:101240002DE9F041044600F02FF994F9455004F1DE
:10125000240609E0606A48B1304600F00BFF08B18F
:1012600000F070FA6D1E6DB2002DF3DC4FF0FF360A
:1012700084F8456000F038F900F016F994F944500C
:1012800004F1100709E0206948B1384600F0F2FE89
:1012900008B100F057FA6D1E6DB2002DF3DC84F832
:1012A0004460BDE8F04100F01FB900002DE9F041B5
:1012B0000546002700F0B8FA354E306808B9FFF748
:1012C00065FD7069054254D1F5B305F10804AC42DF
:1012D0004FD9600711D004F00700C0F10800204486
:1012E000A04246D90446400707D0502080F3118819
:1012F000BFF34F8FBFF36F8FFEE72CB3706884424C
:1013000037D82348183001460D6801E028460D46BD
:101310006968A14202D229680029F7D131688D425B
:1013200027D007682968016068680837011B102901
:101330000FD92819420708D0502080F31188BFF335
:101340004F8FBFF36F8FFEE713E041606C60FFF7D4
:10135000CBFD69687068401A7060B268904200D234
:10136000B060706901430020C5E90001F068401CCD
:10137000F06000F0B7FE780707D0502080F31188A6
:10138000BFF34F8FBFF36F8FFEE73846BDE8F081A4
:101390009400002010B5031F4FF080741C601B1FC9
:1013A00021F001011960191F044B0B6014390A6008
:1013B000091F6FF0020244380A6010BDF5110008E1
:1013C0001CB50F490220CDE90001002380220DA1A8
:1013D0000E4800F06BFD0A490320091DCDE900010C
:1013E000002380220AA10C4800F060FD0448001F81
:1013F000006800F057F9BDE81C4000F075B8000027
:10140000040000205461736B5F310000250A00085E
:101410005461736B5F320000450A0008D0E9013265
:1014200001699A60D0E901235A604A68824201D179
:1014300082684A60002202610868401E08600868ED
:10144000704700F108014FF0FF32C0E90112C1609E
:10145000016100210160704700210161704730B5D2
:101460000B685A1C02D000F1080202E0026904E095
:101470002246546825689D42FAD953684B609960AA
:101480008A60516008610168491C016030BD426892
:101490004A6093688B609368596091600861016845
:1014A000491C016070470000502080F31188BFF391
:1014B0004F8FBFF36F8F0A494868401C486001286E
:1014C0000CD10848006810F0FF0F07D0502080F3BF
:1014D0001188BFF34F8FBFF36F8FFEE77047000097
:1014E0008800002004ED00E00849486828B1401E4B
:1014F000486001D180F311887047502080F3118833
:10150000BFF34F8FBFF36F8FFEE70000880000200E
:1015100070B500282AD0164DA0F1080460686969EA
:10152000084207D1502080F31188BFF34F8FBFF3DB
:101530006F8FFEE722683AB1502080F31188BFF325
:101540004F8FBFF36F8FFEE78843606000F06CF948
:1015500060686968084468602046FFF7C5FC286930
:10156000401C2861BDE8704000F0BCBD70BD0000AB
:10157000940000204FF0E0200021016181610549C5
:101580004FF47A720968B1FBF2F1491E41610721FB
:10159000016170473000002010B5FEF783FE11494D
:1015A00010280ED300F1E02090F8F0030A78904262
:1015B00007D2502080F31188BFF34F8FBFF36F8F96
:1015C000FEE709480068896800F4E060884207D9AE
:1015D000502080F31188BFF34F8FBFF36F8FFEE76A
:1015E00010BD0000880000200CED00E010B5084B95
:1015F000002200BF53F832401CB1521C082AF9D314
:1016000010BD43F8321003EBC201486010BD00006A
:10161000B801002070B515460E460446FFF744FF9A
:1016200094F944100020491C01D184F8440094F935
:101630004510491C01D184F84500FFF755FFA06B08
:1016400028B92A46314604F1240000F099F82046D2
:10165000BDE87040FFF7F4BD10B5020014D00F488C
:10166000406B38B1502080F31188BFF34F8FBFF328
:101670006F8FFEE700F0D8F800211046FFF774FAEC
:1016800000F030FD002807D105494FF08050086078
:10169000BFF34F8FBFF36F8F10BD000034000020E9
:1016A00004ED00E070B50546FFF7FEFE1E4C05B9DF
:1016B0002568281DFFF7B2FEA86A18B105F11800C9
:1016C000FFF7ACFE606A401C60622068854207D16B
:1016D000291D1648FFF7DBFE6068401C606007E0CC
:1016E000A068401EA0602846FFF745FBFFF72AFDD3
:1016F000FFF7FAFE6069002814D02068854211D1F6
:10170000606B38B1502080F31188BFF34F8FBFF367
:101710006F8FFEE706494FF080500860BFF34F8F90
:10172000BFF36F8F70BD00003400002094060020CE
:1017300004ED00E002490A6A0260C968416070472E
:101740003400002001490120C861704734000020A6
:1017500010B50C4650B1094909681831FFF77FFEF2
:101760002046BDE810400121FFF7FEB9502080F36C
:101770001188BFF34F8FBFF36F8FFEE73400002057
:1017800070B514460D4668B10A4909681831FFF76B
:101790007EFE0CB14FF0FF3521462846BDE8704073
:1017A000FFF7E2B9502080F31188BFF34F8FBFF3EA
:1017B0006F8FFEE7340000207CB517480025CDE987
:1017C00000502B46802215A1164800F06FFB124CEA
:1017D0002C3C012803D100F0E7FC012802D0401C7A
:1017E00011D00EE0502080F31188BFF34F8FBFF36C
:1017F0006F8F4FF0FF30A06201206061E56000F064
:101800004DF8206B7CBD502080F31188BFF34F8FC3
:10181000BFF36F8FFEE700006000002049444C4595
:1018200000000000D90D00080248416B491C4163CB
:101830007047000034000020164810B5416B11B10C
:101840000121C16110BD0021C1610169124A01E09D
:10185000B9B1491E01EB810352F82330002BF7D0B8
:1018600001EB810302EB830202F1080453685B6819
:101870005360A34201D15B685360DA680260016182
:1018800010BD502080F31188BFF34F8FBFF36F8FCF
:10189000FEE7000034000020F80100201CB53748A6
:1018A0000168374A914207D1502080F31188BFF375
:1018B0004F8FBFF36F8FFEE700683149491E8842A2
:1018C00007D1502080F31188BFF34F8FBFF36F8F84
:1018D000FEE72C4908780190FF20087008788DF801
:1018E00000009DF800009DF8002000F0F0009042FC
:1018F00007D0502080F31188BFF34F8FBFF36F8F55
:10190000FEE79DF80000204C00F0500020700720FA
:10191000A06005E09DF8002052008DF80020401ED8
:101920009DF800201206F5D4A060032807D05020AF
:1019300080F31188BFF34F8FBFF36F8FFEE74FF433
:101940004070A060019808700C482030016841F494
:1019500070010160016841F070410160FFF70AFE0B
:1019600000206060FEF766FC0848016841F04041D5
:101970000160FEF74BFC00201CBD000000ED00E004
:1019800071C20F4100E400E08800002034EF00E065
:1019900010B5502080F31188BFF34F8FBFF36F8FC6
:1019A00000F0C4FA18B104494FF0805008600020DC
:1019B00080F3118810BD000004ED00E02DE9F04136
:1019C00017460E4605000ED005FB06F09EB1B0FB93
:1019D000F6F1A9420FD0502080F31188BFF34F8F4A
:1019E000BFF36F8FFEE7502080F31188BFF34F8F56
:1019F000BFF36F8FFEE700F15001814207D85020FE
:101A000080F31188BFF34F8FBFF36F8FFEE7084657
:101A1000FFF74CFC04000CD004F150005EB12060D4
:101A2000C4E90F562046012100F008F8204684F84A
:101A30004C70BDE8F0812460F2E7000070B50D46FF
:101A4000040025D0FFF730FDD4E90F20216802FB08
:101A50000011A1600021A163216861600A46D4E9F8
:101A60000F01401E00FB0121E16021464FF0FF30D5
:101A700001F8440F487004F110008DB1FFF7E1FC4C
:101A800004F12400FFF7DDFCFFF72EFD012070BDFF
:101A9000502080F31188BFF34F8FBFF36F8FFEE7A5
:101AA00021690029F0D000F0E5FA0028ECD00449C3
:101AB0004FF080500860BFF34F8FBFF36F8FE3E7A5
:101AC00004ED00E02DE9FF4782B01D468A464FF045
:101AD0000008040003D0BAF1000F08D011E0502034
:101AE00080F31188BFF34F8FBFF36F8FFEE7206C39
:101AF00038B1502080F31188BFF34F8FBFF36F8F41
:101B0000FEE7022D0AD1E06B012807D0502080F3B8
:101B10001188BFF34F8FBFF36F8FFEE700F0F2F92C
:101B20003F4F4FF000094FF0805648B9049838B144
:101B3000502080F31188BFF34F8FBFF36F8FFEE704
:101B4000FFF7B2FCA06BE16B884207D3022D05D0F2
:101B50000498D0B1B8F1000F1AD01EE02A465146C1
:101B60002046FFF7D2F8616A19B104F1240000F0B1
:101B700081FA20B13E60BFF34F8FBFF36F8FFFF745
:101B8000B3FC012006B0BDE8F087FFF7ADFC22E012
:101B90006846FFF7CFFD4FF00108FFF7A5FCFFF700
:101BA00043FEFFF781FC94F94400401C01D184F806
:101BB000449094F94500401C01D184F84590FFF70A
:101BC00093FC04A9684600F033F930B12046FFF7D2
:101BD00037FB00F087FA0020D4E7FFF765FCA06B25
:101BE000E16B884213D1FFF77FFC04F110000499E8
:101BF000FFF7AEFD2046FFF723FB00F073FA002845
:101C00009ED13E60BFF34F8FBFF36F8F98E7FFF712
:101C10006BFC2046FFF714FB00F064FA90E700002D
:101C200004ED00E02DE9F0471F4690468946040088
:101C300003D0B9F1000F08D011E0502080F31188D3
:101C4000BFF34F8FBFF36F8FFEE7206C38B150208A
:101C500080F31188BFF34F8FBFF36F8FFEE7022F22
:101C60000AD1E06B012807D0502080F31188BFF320
:101C70004F8FBFF36F8FFEE7FFF78EFC5020EFF31F
:101C8000118680F31188BFF34F8FBFF36F8FA06B66
:101C9000E16B884206D3022F04D0002086F311881E
:101CA000BDE8F08794F94550A06B3A464946204676
:101CB000FFF72BF8681C06D07F2D14D06D1C84F81C
:101CC00045500120EAE7606A0028FAD004F12400B8
:101CD00000F0D0F90028F4D0B8F1000FF1D00121C4
:101CE000C8F80010EDE7502080F31188BFF34F8F44
:101CF000BFF36F8FFEE700002DE9F747002683B0A2
:101D00008A46040003D0BAF1000F08D011E0502039
:101D100080F31188BFF34F8FBFF36F8FFEE7206C06
:101D200038B1502080F31188BFF34F8FBFF36F8F0E
:101D3000FEE700F0E7F8DFF8F4804FF000094FF01D
:101D4000805748B9059838B1502080F31188BFF307
:101D50004F8FBFF36F8FFEE7FFF7A6FBA56BC5B1F3
:101D600051462046FEF7BEFF6D1EA563206950B1A7
:101D700004F1100000F07EF928B1C8F80070BFF33C
:101D80004F8FBFF36F8FFFF7AFFB012006B0BDE8A9
:101D9000F087059808B11EB106E0FFF7A5FB27E024
:101DA0006846FFF7C7FC0126FFF79EFBFFF73CFDE7
:101DB000FFF77AFB94F94400401C01D184F8449069
:101DC00094F94500401C01D184F84590FFF78CFB45
:101DD00005A9684600F02CF8002820460AD0FFF735
:101DE0002FFA00F07FF92046FFF7C0F80028B3D0A3
:101DF0000020CBE7FFF7BAF890B104F12400059971
:101E0000FFF7A6FC2046FFF71BFA00F06BF900284D
:101E1000A2D1C8F80070BFF34F8FBFF36F8F9BE75D
:101E20002046FFF70DFA00F05DF995E704ED00E0BC
:101E30002DE9F0410C46050014D0DCB1FFF734FB6E
:101E4000194EF2686B682068D11A471C1AD02F68A7
:101E5000D6F820C00026674516D0934214D8012535
:101E600026601BE0502080F31188BFF34F8FBFF333
:101E70006F8FFEE7502080F31188BFF34F8FBFF3C1
:101E80006F8FFEE7002509E0884205D9401A2060DF
:101E90002846FFF74FFCF5E701252660FFF724FBF6
:101EA0002846BDE8F0810000340000202DE9FF5FE6
:101EB0008346DDE90E87994616468A469000FFF76D
:101EC000F5F905001AD05C20FFF7F0F9040012D0F4
:101ED00025630021CDE90241CDE900874B4632461A
:101EE00051465846FEF7A8FF2046FEF76BFE01203C
:101EF00004B0BDE8F09F2846FFF70AFB4FF0FF3023
:101F0000F6E700000548416919B1406B18B100209F
:101F10007047012070470220704700003400002005
:101F20000148C06870470000340000202DE9F041EE
:101F30002E4C0027606B28B1A069401CA061384678
:101F4000BDE8F081E668761CE66013D1A06B0068FE
:101F500038B1502080F31188BFF34F8FBFF36F8FDC
:101F6000FEE7A06BE16BA163E063206A401C206286
:101F7000FFF7E8F8A06ADFF87880864209D3A06B03
:101F80000068A0B1A06BC068C5686868864211D2BD
:101F9000A0622068C06A00EB800158F82100012887
:101FA00000D90127E0690028C9D00127C7E74FF011
:101FB000FF30EDE7281DFFF731FAA86A18B105F1E7
:101FC0001800FFF72BFAE86A2169884200D92061DE
:101FD00000EB800108EB8100291DFFF758FAE86A41
:101FE0002168C96A8842CAD30127C8E734000020A3
:101FF000F801002070B504004FF0000133D01B4DF4
:102000002868844207D0502080F31188BFF34F8F97
:10201000BFF36F8FFEE7206D38B1401E2065E36C83
:10202000E26A9A421FD040B11DE0502080F311882F
:10203000BFF34F8FBFF36F8FFEE7201DFFF7EEF961
:10204000E06CE062C0F13800A061E06A2969884272
:1020500000D92861064900EB800001EB8000211DBA
:10206000FFF715FA0121084670BD0000340000207A
:10207000F801002070B5C068C46854B104F11800BC
:102080000646FFF7CBF9144D686B50B13146134843
:1020900015E0502080F31188BFF34F8FBFF36F8F8F
:1020A000FEE7201DFFF7BAF9E06A2969884200D9E6
:1020B00028610B4900EB800001EB8000211DFFF738
:1020C000E6F9E06A2968C96A884202D90120E86114
:1020D00070BD002070BD000034000020800600208C
:1020E000F80100202DE9F0472C4D00242746686BAD
:1020F00038B1FFF7D9F9686B401E6863686B40B16F
:1021000046E0502080F31188BFF34F8FBFF36F8FED
:10211000FEE7A968224E0120D1B3A6F59169804659
:102120003068E0B1F068C46804F11800FFF776F990
:10213000201DFFF773F9E06A2969884200D92861F8
:1021400000EB800109EB8100211DFFF7A0F9E06A97
:102150002968C96A8842E3D3C5F81C80E0E70CB15E
:10216000FEF7F0FFAC694CB14FEA0806FFF7DEFE60
:1021700000B1EE61641EF9D10020A861E86938B1B0
:102180000849012738070860BFF34F8FBFF36F8FEF
:10219000FFF7AAF93846BDE8F087000034000020B8
:1021A0008006002004ED00E01CB5FEF773FD0D482D
:1021B000006868B10B493720091DCDE900010023F3
:1021C0004FF4807208A10A48FFF770FE002807D17B
:1021D000502080F31188BFF34F8FBFF36F8FFEE75E
:1021E0001CBD000074000020546D72205376630003
:1021F0001D1200082DE9FF411E46134602000A9DEC
:102200004FF0000016D0144C2768002F0FD0CDE9F6
:1022100000130292062917DAFFF774FE02284FF026
:1022200000030FD0002269462068FFF74BFC04B082
:10223000BDE8F081502080F31188BFF34F8FBFF3CA
:102240006F8FFEE72A46EEE700233246694638469E
:10225000FFF7E8FCEBE70000740000207C22000898
:1022600000000020B8000000C80A0008342300085D
:10227000B800002030460000D80A00080000000026
:10228000000000000000000000000030303030305E
:10229000303030303030303030303030303030303E
:1022A0003030303030303000000000000024F400C6
:1022B000000000000000000000000000000000001E
:1022C000000000000000000000000000000000000E
:1022D00000000000000000000000000000000000FE
:1022E00037000000000000000000000000000000B7
:1022F00000000000000000000000000000000000DE
:102300000000000000000000AAAAAAAA0000000025
:1023100000000000000000000000000000000000BD
:1023200000000000000000000000000000000000AD
:0423300000000000A9
:04000005080001D915
:00000001FF
